:1000000009C021C020C056C11EC01DC01CC01BC0DD
:100010001AC019C011241FBECFE9CDBF10E0A0E661
:10002000B0E0ECE4F3E002C005900D92A236B10717
:10003000D9F720E0A2E6B0E001C01D92AE37B207CA
:10004000E1F701D181C1DCCF262F603188F568301E
:1000500080F5423011F128F4442349F0413091F009
:100060000895443079F018F04530B9F0089590E0E3
:1000700063E070E058D18E599F4F2295220F207E69
:10008000FC0145C090E063E070E04DD18E599F4F78
:100090002295220F207EFC0160C090E063E070E0BA
:1000A00042D18E599F4F2295220F207EFC013DC0E8
:1000B0002FE0423001F128F4442349F0413089F027
:1000C00008954430A1F128F14530D9F1089590E028
:1000D00063E070E028D1FC01EE59FF4F8FEF818380
:1000E00039C090E063E070E01ED1FC01EE59FF4F93
:1000F0008FEF808317C090E063E070E014D1FC01C3
:10010000EE59FF4F8FEF82832295220F207E2183AD
:10011000089590E063E070E006D1FC01EE59FF4FD6
:100120008FEF81832295220F207E2283089590E015
:1001300063E070E0F8D0FC01EE59FF4F8FEF808351
:10014000E3CF90E063E070E0EED0FC01EE59FF4FAA
:100150008FEF82832295220F207E20830895CF92F5
:10016000DF92EF92FF920F931F93CF93DF93EC01F7
:10017000E62ECC24C39480916100893008F0C12C14
:10018000F12C80916100F81610F0D12C4BC010E0DA
:10019000809161004E2D181728F460E0812F54DF04
:1001A0001F5FF6CF6FE08F194FDFD12C0F2D10E0BE
:1001B00011950195110990916100DF1471F0609122
:1001C00060008D2D800FA6D060E1680F892F8D19FA
:1001D0004E2D8C1939DFD394EECF692F70E082E673
:1001E00090E066D0CE018BD0F394CBCF2F2D30E0B2
:1001F000201B310BB901660F771F36FF02C060E08C
:1002000070E081504E2D8F191FDFF39480916100B3
:10021000F81660F3682F70E082E690E049D0CE01D6
:100220006ED0D39480916100D81620F4F12C0D2D5E
:1002300010E0ECCFDF91CF911F910F91FF90EF90E5
:10024000DF90CF900895C0E06C2F8CE390E087DFC3
:10025000CF5FC630C8F3F7CF27B3242B27BB38B303
:10026000242F2095232338B3342B4FB7F894FC0167
:10027000680F791FE617F70769F0819198E038BB9E
:10028000000087FF28BB880F00C000C028BB9A95DC
:10029000B1F7F0CF4FBF08959B01220F331F260FF8
:1002A000371FB901D9DF80EA8A95F1F70000089578
:1002B00044E0F2CF1F920F920FB60F9211248F934A
:1002C0009F93AF93BF9380917A0090917B00A09110
:1002D0007C00B0917D000196A11DB11D80937A0034
:1002E00090937B00A0937C00B0937D00BF91AF9171
:1002F0009F918F910F900FBE0F901F9018950097B0
:1003000041F0EFE5F9E03197F1F700C00000019707
:10031000F6CF0895002480FD060E660F11F0869535
:10032000D1F7802D08950024552704C0080E591FC9
:10033000880F991F009729F076956795B8F3710596
:0C034000B9F7802D952F0895F894FFCF99
:02034C000208A5
:00000001FF
