:1000000009C021C020C0A8C01EC01DC01CC01BC08C
:100010001AC019C011241FBECFE9CDBF10E0A0E661
:10002000B0E0E0EFF1E002C005900D92A236B1071A
:10003000D9F720E0A2E6B0E001C01D92AE37B207CA
:10004000E1F73DD0D3C0DCCF282F862F90E02535B7
:1000500088F463E070E0B9D0FC01EE59FF4F822FC5
:1000600063E0AAD08183822F6DEFA6D08150808378
:10007000128208952A3A88F4255563E070E0A5D0ED
:10008000FC01EE59FF4F822F6DEF96D08150818396
:100090001082822F63E090D010C02A5A63E070E093
:1000A00094D0FC01EE59FF4F1182822F63E084D07F
:1000B0008083822F6DEF80D0815082830895C0E0CD
:1000C000D0E010E08091600090E0C817D9079CF460
:1000D0008C2F8295807F6C2F810FB6DF609160003E
:1000E00070E082E690E036D01E5F8091610090E083
:1000F00058D02196E7CFC0E0D0E0E7CF27B3242B3C
:1001000027BB38B3242F2095232338B3342B4FB784
:10011000F894FC01680F791FE617F70769F08191E1
:1001200098E038BB000087FF28BB880F00C000C0E4
:1001300028BB9A95B1F7F0CF4FBF08959B01220FCE
:10014000331F260F371FB901D9DF80EA8A95F1F7EF
:100150000000089544E0F2CF1F920F920FB60F9265
:1001600011248F939F93AF93BF9380917A009091C6
:100170007B00A0917C00B0917D000196A11DB11D76
:1001800080937A0090937B00A0937C00B0937D00D5
:10019000BF91AF919F918F910F900FBE0F901F90C5
:1001A0001895009741F0EFE5F9E03197F1F700C0BD
:1001B00000000197F6CF0895002480FD060E660F1B
:1001C00011F08695D1F7802D08950024552704C09D
:1001D000080E591F880F991F009729F0769567958B
:1001E000B8F37105B9F7802D952F0895F894FFCFD6
:0201F000080AFB
:00000001FF
